:020000040800F2
:10000000F84A002005020008F9100008090D000850
:10001000FF0E0008750A0008A91F00080000000074
:100020000000000000000000000000004501000882
:10003000990B000800000000A1010008E51D000860
:100040001F0200081F0200081F0200081F0200080C
:100050001F0200081F0200089D0B00081F02000875
:100060001F0200081F0200081F0200081F020008EC
:100070001F0200081F0200081F0200081F020008DC
:100080001F0200081F0200081F0200081F020008CC
:100090001F0200081F0200081F0200081F020008BC
:1000A0001F0200081F0200081F0200081F020008AC
:1000B0001F0200081F0200081F0200081F0200089C
:1000C0001F0200081F0200081F0200081F0200088C
:1000D0001F020008311F00081F0200081F0200084D
:1000E0001F0200081F0200081F0200081F0200086C
:1000F0001F0200081F0200081F0200081F0200085C
:100100001F0200081F0200081F0200081F0200084B
:100110001F0200081F0200081F0200081F0200083B
:100120001F0200081F0200081F0200081F0200082B
:10013000DFF80CD000F07AFB004800472D2E0008B5
:10014000F84A00202C4B19680868B0E8F04F80F39B
:100150000988BFF36F8F4FF0000080F3118870475C
:100160000000000008480068006880F308884FF02D
:10017000000080F3148862B661B6BFF34F8FBFF3FF
:100180006F8F00DF00BF00BF08ED00E0DFF80C005C
:10019000016841F470010160704700BF88ED00E024
:1001A000EFF30980BFF36F8F134B1A681EF0100F27
:1001B00008BF20ED108A20E9F04F106009B44FF01D
:1001C000BF0080F31188BFF34F8FBFF36F8F03F031
:1001D0007DFE4FF0000080F3118809BC19680868A3
:1001E000B0E8F04F1EF0100F08BFB0EC108A80F39B
:1001F0000988BFF36F8F704764000020EFF305801C
:10020000704700000648804706480047FEE7FEE7C3
:10021000FEE7FEE7FEE7FEE7FEE7FEE7FEE7FEE7B6
:10022000111E00083101000840EA01039B0703D0BA
:1002300009E008C9121F08C0042AFAD203E011F825
:10024000013B00F8013B521EF9D270472DE9FE4FE9
:10025000804681EA0300C00F0C46009021F0004167
:1002600023F00045B8EB0200A94105D240462146E3
:1002700090461C460B46024623F00040104347D0F0
:10028000270DC7F30A00C3F30A510290401A0190E8
:1002900040286BDAC3F3130040F4801B00989246A9
:1002A00020B10023D2EB030A63EB0B0B01985946F4
:1002B000C0F14002504600F0D4F906460D465046C3
:1002C0005946019A00F0DCF910EB08006141002466
:1002D00087EA115284EAE7731A4340D0009A62B366
:1002E000019A012A4FEA075215DC001B61EB02015B
:1002F0004FF0004202EA0752CDE90042001C41F5EE
:10030000801132462B4600F013FA03B0BDE8F08F9F
:1003100040462146F9E7001B61EB0201001C41F554
:10032000801300185B412018A2F5001747EB03016A
:1003300040EAD570B6196D4111E06D084FEA3606F6
:1003400045EAC0754FEA0752001B61EB0201001C31
:1003500041F5801149084FEA3000001951413246F9
:100360002B4603B0BDE8F04F00F0D3B9009801224E
:1003700040000023D0EB020263EBE07300982146BB
:100380004FEAE074B8EB000061EB0401E9E783F0A9
:1003900000435BE781F0004158E72DE9FE4F81EA19
:1003A000030404F0004421F0004100944FF0000BDE
:1003B00023F0004350EA01045ED052EA03045BD00C
:1003C000C3F30A54C1F30A552C44A4F2F334019444
:1003D000A0FB0254C1F3130141F48011C3F31303D2
:1003E00043F4801301FB024400FB034E840A970A86
:1003F00044EA815447EA8357A4FB076802958D0AB3
:1004000005FB07854FEA932C04FB0C542705029D3E
:100410004FEA065847EA1637B5EB08056EEB070CAE
:10042000870E920E47EA811742EA8312A7FB020168
:10043000B6EB0B0164EB00042B0D43EA0C335E18A2
:1004400044EB1C50DA465146E7FB0201C5F31304A6
:100450004FEA0B3343EA14534FEA0432019C43EA58
:100460000603A4F10C040294009CCDE900B400F052
:100470005FF903B0BDE8F08F00200146F9E72DE9F0
:10048000F04D81EA030404F0004B21F000451446CE
:100490004FF0000A23F0004150EA050220D054EA50
:1004A00001021DD0C5F30A570246C5F31303C1F379
:1004B0001300C1F30A5640F4801543F48013A7EBF0
:1004C0000608101BD64608F2FD3873EB050002D370
:1004D00008F1010801E092185B41B8F1000F03DA5E
:1004E00000200146BDE8F08D00204FF48011064643
:1004F00084460EE0171B73EB050705D3121B63EB55
:10050000050306434CEA010C49084FEA30009218F3
:100510005B4150EA0107EDD152EA030012D082EAB2
:10052000040083EA0501084305D0101BAB4106D245
:100530000122002306E000224FF0004302E06FF0AA
:10054000010253101AEB06004CEB085110EB0A00A5
:1005500041EB0B01BDE8F04D00F0DBB80EB540F209
:10056000334102910021CDE900110A460B4600F00B
:10057000DFF803B000BD00F0004230F000400AD0C8
:10058000C10D01F56071C0F3160042EA0151C208C5
:1005900040071143704700200146704701F00043B7
:1005A00030B421F0004150EA010206D00A0DA2F554
:1005B0006072C1F31301002A02DC30BC00207047D6
:1005C000440F44EAC104C100E01830BC00EBC25043
:1005D00000F068B830B50B46014600202022012407
:1005E00009E021FA02F59D4205D303FA02F5491B01
:1005F00004FA02F52844151EA2F10102F1DC30BD17
:100600002DE9F05F0546002092469B468846064647
:10061000814640241BE0284641464746224600F0DA
:1006200017F953465A46C01A914110D3114618463D
:10063000224600F016F82D1A67EB01084F462246B5
:100640000120002100F00DF817EB00094E41201E9B
:10065000A4F10104DFDC484631462A464346BDE8A2
:10066000F09F202A04DB203A00FA02F100207047B4
:100670009140C2F1200320FA03F3194390407047E0
:10068000202A06DBCB17203A41FA02F043EAE07356
:1006900006E041FA02F3D040C2F120029140084343
:1006A000194670470029A8BF7047401C490008BF81
:1006B00020F00100704710B4B0FA80FC00FA0CF092
:1006C00050EA010404BF10BC704749B1CCF12004CA
:1006D00021FA04F411FA0CF118BF01212143084357
:1006E000A3EB0C01CB1D4FEA00614FEA102042BF83
:1006F000002010BC704700EBC35010440029A4BF79
:1007000010BC7047401C490008BF20F0010010BC1D
:10071000704710B5141E73F1000408DA401C41F153
:10072000000192185B411A4301D120F0010010BD75
:100730002DE9F04D92469B4611B1B1FA81F202E0EB
:10074000B0FA80F220329046FFF78BFF04460F4646
:1007500040EA0A0041EA0B0153465A46084313D0C7
:10076000114653EA010019D0C8F14002504600F08A
:100770006FF805460E46504659464246FFF771FF50
:10078000084305D0012004E020463946BDE8F08D3D
:100790000020054346EAE0762C4337430A98630578
:1007A000E40AA0EB08000022FD0A44EA47540A309C
:1007B00002D500200146E9E7010510196941DDE98C
:1007C000084500196941BDE8F04DA2E7C1F30A529E
:1007D000C1F3130140F2FF3341F480119A4202DA6F
:1007E00000200146704740F233439A42A2F233425E
:1007F00002DC524200F02CB8FFF733BF30B5041EC4
:1008000071F1000404DB4FF00044404264EB01014D
:10081000141E73F1000405DB1C464FF000435242E6
:1008200063EB0403994208BF904230BD064C074D6C
:1008300006E0E06840F0010394E8070098471034B0
:10084000AC42F6D3FFF778FC105100083051000895
:10085000202A04DB203A21FA02F00021704721FA15
:1008600002F3D040C2F1200291400843194670477C
:1008700010B5002002F010F9174C0021204602F0BC
:100880008BF801221102204602F022F902221146C1
:10089000204602F065F8072310220021204602F0CE
:1008A000C2F8072311220121204602F0BCF80122E0
:1008B0000221204602F083F84FF4E0420221204654
:1008C00002F09CF802F032F9204602F06EF8204661
:1008D000BDE8104002F033B80024014000000000E1
:1008E0002DED0C8B3A4F384CDFF8E0909FED3A8BB2
:1008F0009FED3B9B9FED3CAB9FED3DBB9FED3ECB0A
:100900009FED3FDB404E414D07F104084FF47A71F3
:10091000206803F01FFD0028F8D00221484602F0AD
:10092000C7F84FF47A7003F003FA0021206803F04F
:1009300011FD0028EAD03868FFF710FE53EC182BA1
:10094000FFF72BFD53EC192BFFF727FD53EC1A2B68
:10095000FFF720FD53EC1B2BFFF71FFD53EC1C2B67
:10096000FFF78DFD53EC1D2BFFF770FCFFF716FE14
:1009700082463060D8F80000FFF7F0FD53EC182BEA
:10098000FFF70BFD53EC192BFFF707FDFFF706FEF2
:1009900028605046FFF7EFFD41EC100B1CA053EC14
:1009A000102B01F053FB2868FFF7E5FD41EC100B1D
:1009B00024A053EC102B01F049FB2DA001F046FBC5
:1009C000A4E70000000000002C00002000240140EB
:1009D0003C240140000000006666666666660A40C8
:1009E000000000000000303FE17A14AE47E1F63F1E
:1009F0000000000000408F40333333333333114065
:100A00000000000000003940080000200C00002019
:100A10000D0A207468652074656D70657261747567
:100A2000726520646174612069732025322E3066FE
:100A300020646567726565732043656C73697573BF
:100A40000D0A000020746865207265666572656E27
:100A5000636520766F6C74616765206461746120E2
:100A600069732025352E336656200D0A00000000DC
:100A7000200D0A00FEE70000BEEE001AC0ED000ADD
:100A800060EE811A9FED071A40EE411A20EE010A2E
:100A9000B6EE001A00EEC10AC1ED001A82ED000A9E
:100AA00070470000D7B35D3F80ED000A9FED040A58
:100AB00021EE001A00EEC01A81ED001A7047000006
:100AC0003ACD133F002070477047704710B52C494E
:100AD000DFED2C0A9FED2C2A2E4C2DED028BF0EE33
:100AE000408A0288B1F90430D21A00EE102AB8EE1A
:100AF000C00A20EE201A9FED250AF0EE402A51EEA2
:100B0000022A9FED231AC2EE811AC4ED0D1A408805
:100B1000B1F90610401A02EE900A04F13001081FE4
:100B2000F8EEE22A62EEA00A10EE820AC0EE010A96
:100B3000B1EE610AC4ED0E0A30EE601AB0EE610A41
:100B400084ED0F1AFFF7B0FFB0EE680A01F0F6FF70
:100B5000B0EE408AB0EE680A02F02CF8B0EE401A0F
:100B6000D4ED0C0A94ED0B0AF0EE481A04F12801BA
:100B7000BDEC028B081FBDE8104000F08DBC0000EA
:100B8000D000002033335340000080393333D33F4B
:100B90009A99193F944600207047000010B5012033
:100BA00002F09EF8002808BF10BD10A001F04EFA18
:100BB0001648D0F8BC1100290CBF01210021C0F853
:100BC000BC1113480121006803F0D2FA002804BFC9
:100BD00010A001F03BFA16A001F038FA012002F053
:100BE00079F8BDE8104018A001F030BA20456E74C5
:100BF00065722065787465726E616C20696E7465CB
:100C0000727275707420300D0A000000008021425D
:100C10003000002020476976652073656D6170683B
:100C20006F7265206661696C7572650D0A0000005F
:100C30002053656E64206B65792073656D61706803
:100C40006F72650D0A00000020436C656172696E69
:100C5000672065787465726E616C20696E74657268
:100C60007275707420300D0A0000000000EE100A4A
:100C700019499FED1B1AB8EE400AD1ED000A194838
:100C800030EE600AF2EE060A20EE200AF0EE000ACC
:100C900020EE200ADFED110A60EE200A80EE810AC4
:100CA000DFED110A10EE101A814205DD30EE600A08
:100CB00010EE101A8142F9DC10EE101A0B48814236
:100CC00006D900BF30EE200A10EE101A8142F9D882
:100CD000074880ED000A7047D0000020DB0F494034
:100CE00000FC7F46DB0F4940DB0FC940DB0F49C0EA
:100CF000B40000200349B1F80900C97A40EA014074
:100D000070470000D4460020FEE720EE812A00EE66
:100D1000612A20EE010A00EEA10A80ED002A81ED91
:100D2000000A7047104D114C114F012664212868AC
:100D300003F010FB98B1207826EA901161F3861039
:100D4000207010F0400F03D00AA001F07FF906E0F8
:100D50000CA001F07BF90021386803F0FBFA0A20AF
:100D600002F0E6FFE2E70000300000200000002073
:100D70002C00002020414420537769746368206F61
:100D80006E0D0A0020414420537769746368206F18
:100D900066660D0A0000000010B540F2026002F025
:100DA00095FB0123032204210C4801F0EDFF4FF4D1
:100DB000C06002F08BFB00220221062002F0E8F85E
:100DC0000021084601F0B2FF01220021104601F087
:100DD00039FFBDE81040012001F07CBF0008014050
:100DE00010B540F2036002F071FB0D4C4FF48043EC
:100DF00003221821204601F0C7FF4FF400430322CD
:100E00001821204601F0C0FF4FF48041204601F038
:100E100089FF2046BDE810404FF4004101F082BF39
:100E2000000C0140104D114CD5F8B80100280CBF42
:100E300001200020C5F8B80100231A461946206891
:100E400003F0F0F858B1206802F0C2FE014608A095
:100E500001F0FCF840F2E23002F06AFFE4E710A093
:100E600001F0F4F8F6E70000008021423400002091
:100E7000205468652073797374656D2068617320F0
:100E80006265656E2072756E6E696E6720666F7240
:100E9000202564207365636F6E6473200D0A000063
:100EA00020436865636B2077686574686572207499
:100EB000686520717565756520776173207375634A
:100EC0006365737366756C6C7920726561640D0A75
:100ED0000000000010B5BF2080F31188BFF34F8FD2
:100EE000BFF36F8FFFF7EEFDFFF7EFFDFFF7EAFDB2
:100EF0000024FFF7E9FD84F31188204610BDFEE7CA
:100F0000DFF8B0802C4F82B04FF0805B002643F6B4
:100F1000FF7908F1140A08F10C0440F6412532204B
:100F200002F006FF25A001F091F8D8F80800002192
:100F300000960028F3D000294FF0FF31EFF305822F
:100F40007AB16A46002103F0C7F90128E7D1009879
:100F500058B11B48C0F800B0BFF34F8FBFF36F8F7D
:100F600003E003F0F7F90128D9D1FFF7B3FFA9EBAC
:100F70000000AAF8040000F0DBF8BF2080F311881D
:100F8000BFF34F8FBFF36F8F208803212A1A384693
:100F900002F006FC608802212A1A384602F000FCA2
:100FA000A08801212A1A384602F0FAFB86F311883C
:100FB000B5E70000A0000020002C01402D0000003B
:100FC00004ED00E010B582B003220021012002F000
:100FD000F4FF2C4CA06020B100231A46194603F000
:100FE00021F829490320CDE900010023802227A10F
:100FF000294803F05BFA29A001F028F801202070AD
:1010000032489FED310ADFED320A80ED000A80EDB3
:10101000020A80ED030A9FED2F1AC0ED090A80ED48
:101020000B1A9FED2D1A80ED0C1A9FED2C1AC0EDB6
:10103000120A80ED131A2B489FED291A80ED001A31
:101040009FED291A80ED011A9FED281A80ED021AF2
:1010500080ED030AC0ED090AB1EE040A80ED0A0A28
:101060009FED230A80ED0B0A9FED220A80ED0C0A0A
:10107000B7EE000A80ED120ABFEE000A80ED130AF7
:1010800002B010BDA0000020A40000204D6F746FBE
:10109000725F5461736B0000010F00082054686593
:1010A000204D6F746F72205461736B20696E697488
:1010B00069616C697A6174696F6E207375636365C9
:1010C00065646564200D0A0000000000F4450020FE
:1010D0000AD7233C0000C8420000C8C20AD723BC7C
:1010E000CDCC4C3DA4450020CDCCCC3D17B7D1385C
:1010F00000004842000048C2704700000B4E002428
:10110000322002F015FE012D0CBF641C641E322C2F
:10111000A8BF0025002CD8BF012504EB84004200A5
:101120000221304602F03CFBEAE70000002C0140BF
:101130002DE9F041A3482DED028B01789FEDA28AA5
:10114000A24EDFEDA38A00F11405A24FA24CA8889D
:10115000052924BFBDEC028BBDE8F081DFE801F07A
:101160007F038FC7FE00FFF7C5FDC0B200EE100A77
:10117000B8EE400ADFED990AA888C0EE208AFFF792
:1011800075FD95ED000A9648FFF7A0FC954890ED97
:10119000100A904887ED040AD4ED0A0AC7ED050A43
:1011A00086ED048A94ED091A86ED051A00F081F99E
:1011B000D6ED050A96ED040A844800F07AF997ED19
:1011C000100A84ED030AD6ED100AC4ED020AD7ED29
:1011D000120A60EEA80AB4EEE00AF1EE10FAC8BFF7
:1011E000C4ED030A0CDCD7ED130A60EEA80AB4EED6
:1011F000E00AF1EE10FAD8BFB0EE600A84ED030AFF
:1012000095ED000A01F09AFCB0EE408A95ED000AD7
:1012100001F0D0FCB0EE401A04F11401D4ED030A41
:1012200094ED020AF0EE481A081FFFF76EFD04F174
:101230002002111FD4ED050A94ED040A081FFFF7E0
:101240001BFC94ED081AD4ED070A94ED060A6649D2
:101250000020BDEC028BBDE8F04100F027BCFFF799
:1012600005FD95ED000A5E48FFF730FC5E49002061
:10127000088048808880BDEC028BBDE8F08158482A
:10128000B0EE480AFFF722FC84ED038AC4ED028A1F
:10129000B0EE480A01F052FCF0EE408AB0EE480A87
:1012A00001F088FCB0EE401A04F11401D4ED030AF9
:1012B00094ED020AF0EE681A081FFFF726FD04F10C
:1012C0002002111FD4ED050A94ED040A081FFFF750
:1012D000D3FB94ED081AD4ED070A94ED060A4249AF
:1012E0000020BDEC028BBDE8F04100F0DFBB95EDC6
:1012F000000A3B48FFF7EAFB84ED038AC4ED028A4B
:1013000095ED000A01F01AFCB0EE408A95ED000A56
:1013100001F050FCB0EE401A04F11401D4ED030AC0
:1013200094ED020AF0EE481A081FFFF7EEFC04F1F4
:101330002002111FD4ED050A94ED040A081FFFF7DF
:101340009BFB94ED081AD4ED070A94ED060A264992
:10135000002000F0ABFB95ED000A00E009E0DFEDB6
:10136000230A30EE200A85ED000ABDEC028BBDE8B1
:10137000F081FFF77BFC95ED000A1948FFF7A6FB0B
:101380009FED1B0A134887ED040AD4ED0A0AC7ED46
:10139000050A86ED048A94ED091A86ED051A00F017
:1013A00088F8D6ED050A96ED040A084800F081F8A1
:1013B00097ED100A84ED030A96ED100A84ED020AF7
:1013C0001EE70000A000002000000000F4450020FF
:1013D000CDCCCC3DA4450020944600200000C8425E
:1013E0003C00002044460020AC0000206F12033B6C
:1013F000CDCC4C3D30B587B040F20B6002F066F8C2
:10140000244D284602F004FA7720ADF800000024AD
:101410004FF4FA70ADF804400290ADF80240ADF818
:1014200006408DF80C406946284602F069FA012012
:10143000ADF810000420ADF81200ADF81440ADF87E
:101440001840ADF81640ADF81A4004AA022128460B
:1014500002F088F8FA220221284602F0A1F960225F
:101460000221284602F074F900220221284602F0E7
:10147000A7F90121284602F0A1FA284602F06DF8EA
:101480000121284602F096FA284602F033FA07B006
:1014900030BD0000002C014020EE812A00EE612AC0
:1014A00020EE010A00EEA10A80ED002A81ED000A7B
:1014B000704780ED040A30EE600AC0ED050A80ED49
:1014C000060A90ED091AF0EEC00AF4EEC10AF1EE38
:1014D00010FA34BF90ED011A90ED001A21EE001AB7
:1014E00080ED0D1A90ED0A1AF4EEC10AF1EE10FA31
:1014F000D0ED080A3CBF70EE800AC0ED080A90EDFE
:101500000B1AF4EEC10AF1EE10FAC8BF80ED081A0A
:101510000ADC90ED0C1AF4EEC10AF1EE10FAD8BF15
:10152000F0EE410AC0ED080AD0ED020A90ED081A6B
:1015300060EE810AC0ED0E0A90ED071AD0ED031A95
:1015400030EE411A21EE211A80ED0F1AD0ED0D1A5E
:1015500071EEA00A70EE810AC0ED100A90ED121A29
:10156000F4EEC10AF1EE10FAC8BF80ED101A0ADCE1
:1015700090ED131AF4EEC10AF1EE10FAD8BFF0EEB6
:10158000410AC0ED100A80ED070A7047A52000F05F
:1015900043F8FBE710B588B040F2026001F096FF17
:1015A00040F2066001F092FF40F20C6001F08EFF05
:1015B000164CA02303221821204601F0E5FB40230E
:1015C00003220421204601F0DFFB114C08230322F3
:1015D0001021204601F0D8FB0821204601F0A4FB91
:1015E00000204FF48271CDE9001061150391029043
:1015F0001021CDE90501074C04906946204601F011
:1016000095FF204601F08DFF08B010BD0008014095
:10161000001801400030014006498A6812F0020FAC
:10162000FBD0C860886810F0010FFBD0C868C0B25A
:10163000704700000030014010B582B002F00AFB94
:101640003D490020CDE90001034680223BA13E48F0
:1016500002F02CFF3DA000F0F9FC47480124CDE941
:1016600000400023802245A1474802F01FFF47A009
:1016700000F0ECFC50490220CDE90001002380225B
:101680004EA1524802F012FF51A000F0DFFC5C486E
:101690000023CDE9004080225AA15F4802F006FFF6
:1016A0004BA000F0D3FC5D480023CDE90040802230
:1016B0005BA15F4802F0FAFE45A000F0C7FC5D4860
:1016C0000023CDE9004080225BA15E4802F0EEFEDF
:1016D0005DA000F0BBFC00220421022002F06DFCA2
:1016E0006449086064A000F0B1FC032200210120DD
:1016F00002F063FC6849032208600021012002F027
:101700005CFC664908600021FF2002F023FC64496C
:10171000086064A000F09AFC6B48006802F024FBAB
:101720006AA000F093FC74A000F090FC02B0BDE849
:10173000104002F09DBA0000140000204C45445FA8
:101740005461736B00000000250E0008205468658A
:10175000204C4544205461736B20696E6974696143
:101760006C697A6174696F6E207375636365656413
:101770006564200D0A000000180000204144435F0A
:101780005461736B00000000E10800082054686594
:1017900020414443205461736B20696E6974696110
:1017A0006C697A6174696F6E2073756363656564D3
:1017B0006564200D0A0000001C0000204B65795371
:1017C00063616E5F5461736B00000000250D0008BB
:1017D00020546865204B65795363616E20546173B2
:1017E0006B20696E697469616C697A6174696F6E86
:1017F00020737563636565646564200D0A000000ED
:101800002400002053746174654A7564676D656EC9
:10181000745F5461736B00001119000820000020F0
:10182000535049546573745F5461736B000000003A
:101830008D1500082800002050574D5465737454CE
:1018400061736B00FD100008205468652050574DEF
:10185000205461736B20696E697469616C697A6187
:1018600074696F6E20737563636565646564200DCC
:101870000A0000003800002020517565756520635E
:1018800072656174696F6E20737563636565646505
:1018900064200D0A000000002C0000203000002011
:1018A000340000202053656D6170686F726520639D
:1018B00072656174696F6E207375636365656465D5
:1018C00064200D0A0000000010000020205468650C
:1018D000205374617274205461736B2020697320EB
:1018E00064656C65746564207375636365737366A2
:1018F000756C6C79200D0A002053797374656D2026
:1019000072756E6E696E672E2E2E0D0A0000000035
:101910000A4D0B4C287810F0400F0AD0206802F0D6
:1019200057F9012805D000231A461946206802F00D
:1019300079FB0A2002F0FCF9ECE70000000000202F
:101940002C00002084B0DFF8688080250024DFF8B8
:1019500064A04FF080596E465FF02007D8F8080069
:101960000290002808BF0095F8D04FF0FF32EFF347
:1019700005810394406889B103AA311D02F0ACFCD3
:1019800001280CBF0097009403980028E6D0CAF8FD
:101990000090BFF34F8FBFF36F8FDFE7311D02F071
:1019A00011FC01281ABF402000900097D6E70000E4
:1019B000BC00002004ED00E070B52B4E90B0002478
:1019C000D6E90001CDE902010EA80794049002981F
:1019D000CDE9050102AD0C2001F02AFC0499086054
:1019E000C8B1056000220421029802F0E6FA0499C9
:1019F0000028096848600499096831D005A801F0F9
:101A00002FFB04990968886001000498006814BFDE
:101A1000044602F039F9154DAC60D6E9030172694C
:101A2000CDE908010A9208A801F01AFBE860D6E99E
:101A30000601326A0D92CDE90B010BA801F010FBF3
:101A40002861291D0120CDE900010023802208A181
:101A50000A4802F02BFD0AA000F0F8FA10B070BDA1
:101A6000084602F011F9D6E7EC500008BC0000204F
:101A700053746F72655461736B0000004519000860
:101A8000205468652053746F7265205461736B2015
:101A9000696E697469616C697A6174696F6E2073CB
:101AA0007563636565646564200D0A00B5EEC00A60
:101AB00070B40022F1EE10FA1446CCBF4FF0010CC6
:101AC0004FF0000CF5EEC00AF1EE10FACCBF012386
:101AD0000023B5EEC01AF1EE10FACCBF01250025A7
:101AE0000CEB430303EB85039FEDBC4AB7EE003AD2
:101AF00060EE841ABCEEE12A60EE041AFCEEE11AF4
:101B0000DFEDB73A40F64125072B60EEA30A20EE41
:101B1000230AFCEEE02A61EE230A21EE041ABCEE51
:101B2000C00AFCEEE00ABCEEC11A80F04A81DFE890
:101B300003F0A53CFC04A670DC0012EE103A11EE96
:101B4000906A03EB060CAC451FD900EE10CA40F6B4
:101B50002D2C03FB0CF3F8EE400A06FB0CFC83EE85
:101B6000200A00EE903AF8EE600A60EE800AFCEE81
:101B7000E00A10EE903A00EE90CAF8EE600A20EE0D
:101B8000800ABCEEC00A10EE106AA5EB030CACEBA9
:101B9000060C4FEA5C0C63449D196CF30F0263F36F
:101BA0001F4265F30F0400F00CB912EE90CA10EE5C
:101BB000903A0CEB0306AE421ED900EE106A40F6D6
:101BC0002D260CFB06FCF8EE400A734383EE200A38
:101BD00000EE90CAF8EE600A60EE800AFCEEE00AC1
:101BE00010EE90CA00EE903AF8EE600A20EE800AFD
:101BF000BCEEC00A10EE103AA5EB0C05ED1A6D080C
:101C0000AC4463446CF30F0265F31F4263F30F04AB
:101C1000D7E011EE906A11EE10CA06EB0C03AB424E
:101C200020D900EE103A40F62D237343F8EE400A17
:101C300083EE200A00EE903A40F62D230CFB03F3CE
:101C4000F8EE600A60EE800AFCEEE00A10EE906AA0
:101C500000EE903AF8EE600A20EE800ABCEEC00A70
:101C600010EE10CAAB1BA3EB0C035D08AB199C4430
:101C70006CF30F0265F31F4263F30F04A1E010EE53
:101C8000106A12EE90CA06EB0C03AB4220D900EEAC
:101C9000103A40F62D237343F8EE400A83EE200AF3
:101CA00000EE903A40F62D230CFB03F3F8EE600AA9
:101CB00060EE800AFCEEE00A10EE906A00EE903AC8
:101CC000F8EE600A20EE800ABCEEC00A10EE10CAE0
:101CD000AB1BA3EB0C035B089D19AC446CF30F0228
:101CE00065F31F4263F30F046BE011EE10CA12EEAE
:101CF000103A0CEB0306AE4220D900EE106A40F613
:101D00002D260CFB06FCF8EE400A734383EE200AF6
:101D100000EE90CAF8EE600A60EE800AFCEEE00A7F
:101D200010EE90CA00EE903A00E014E0F8EE600A7F
:101D300020EE800ABCEEC00A10EE103AA5EB0C05AE
:101D4000ED1A6D08AC4463446CF30F0263F31F4259
:101D500065F30F0435E010EE903A10EE106A03EBD5
:101D6000060CAC451FD900EE10CA40F62D2C03FB23
:101D70000CF3F8EE400A06FB0CFC83EE200A00EEA2
:101D8000903AF8EE600A60EE800AFCEEE00A10EE8F
:101D9000903A00EE90CAF8EE600A20EE800ABCEE9F
:101DA000C00A10EE106AA5EB030CACEB060C4FEA70
:101DB0005C0C63449D196CF30F0265F31F4263F3DF
:101DC0000F0428B91046130C63F30F0260F31F428F
:101DD0000A80100C48808C8070BC704770148E454F
:101DE00070148EC510B5BF2080F31188BFF34F8FDC
:101DF000BFF36F8F02F018FC18B104494FF0805008
:101E00000860002080F3118810BD000004ED00E0A0
:101E1000444881B0016841F47001016042480168A2
:101E200041F001010160416841F080014160002200
:101E300044F620610092009B5B1C00938B42FAD316
:101E4000416821F003014160016821F4102121F073
:101E5000807101604FF41F018160016821F48021CD
:101E600001604260C2620268002142F48032026076
:101E70004FF6FF720368491C13F4003F01D19142F1
:101E8000F8D1016811F4003F4AD0C16941F0805196
:101E9000C16126490A6842F440420A6042684260D1
:101EA00042684260426842F480624260426822F4C2
:101EB00040324260426842F440324260426822F45A
:101EC000701222F090424260426842F4501242F096
:101ED00000624260026842F080720260026812F0A2
:101EE000007FFBD00A6842F480320A604A6812F42C
:101EF000803FFBD00A6842F400320A604A6812F45C
:101F0000003FFBD0416821F003014160416841F08E
:101F100002014160416811F0080FFBD001B0704729
:101F2000FEE7000088ED00E0001002400070004075
:101F300070B50F4C0F4D2146284601F0FBFD0028DF
:101F400008BF70BD0C49D1F8BC0100280CBF0120AE
:101F50000020C1F8BC01094A1068411C08A01160AA
:101F600000F074F821462846BDE8704001F0D6BD67
:101F700005030500003801400080214204000020D4
:101F80005553415254305F49525148616E646C65FB
:101F90007220686173207365742025642074696DF4
:101FA0006573200D0A000000FEE7000070B50546CD
:101FB00040F2026001F08AFA40F20E6001F086FA07
:101FC000204C4FF4007303221821204600F0DCFE61
:101FD000231503220421204600F0D6FE1A4C204689
:101FE00001F02AFD2946204601F0F2FC002120469E
:101FF00001F0D3FD0021204601F0C1FD0021204663
:1020000001F0AFFD0021204601F077FD00212046C0
:1020100001F06DFD0421204601F0ABFD08212046B2
:1020200001F0B5FD40F20531204601F06CFD0022C3
:102030000121252000F0ACFF2046BDE8704001F0F2
:1020400045BD000000080140003801400FB4054BB9
:1020500010B503A9044A029800F0DAF810BC5DF844
:1020600014FB0000012D0008D800002002E008C881
:10207000121F08C1002AFAD170477047002001E002
:1020800001C1121F002AFBD1704700002DE9FF5F3C
:1020900082B00021DDE90430020DDDF840B00343D9
:1020A00018D044F61050A2F2FF3242431514119892
:1020B00001281FD0A5EB0B00401C5FEA000A4FF07F
:1020C00000064E4FDFF83891B046504615D5CAF19C
:1020D000000413E0119801244AA3012801D16FEAFA
:1020E0000B010298119AC0E90031C0E9024206B022
:1020F000BDE8F09FCBF10000DFE704460021404A35
:10210000491842EB0450CDE9001012E0E00707D077
:1021100032463B4640464946FEF73FF980468946EF
:1021200032463B4610461946FEF737F906460F463B
:102130006410002CEAD1DDE90401DDE90023BAF1E5
:10214000000F06DAFEF729F942464B46FEF725F95D
:1021500005E0FEF794F942464B46FEF790F9044637
:102160000E460022284BFEF749FB03D84FF0FF3004
:10217000014607E00022254B20463146FEF766F86F
:10218000FEF724FB102409E0002C0ADB0A220023BE
:10219000FEF736FA039B30321A55641E50EA0102EC
:1021A000F2D1641C039AC4F111031444119A012A58
:1021B00003D0012208430DD10AE0084304D00020D7
:1021C0004FF0110B119072E7A3EB0B056D1E0DE0A4
:1021D0005B4504DD4FF0000205F1010504E003DA80
:1021E0004FF00002A5F10105002AECD002981199E8
:1021F000C0E90231C0E9004579E700000000144061
:102200000000F03F300000000000F0430000E03F1D
:102210002DE9FF4F95B09B468946064600250FE203
:10222000252877D100242746F84A0121059400E0AB
:10223000044316F8013F203B01FA03F01042F7D1A6
:1022400030782A2811D06FF02F033078A0F13002B7
:10225000092A16D8059A44F0020402EB820203EB25
:1022600042021044761C0590EFE759F8042B0592C2
:10227000002A03DA504244F40054059044F002046A
:10228000761C30782E2816D116F8010F44F004047D
:102290002A280DD06FF02F023078A0F13003092BDF
:1022A00009D807EB870302EB4303C718761CF3E753
:1022B00059F8047B761C30786C280FD006DC4C284B
:1022C00017D068280DD06A2814D104E0742810D0E3
:1022D0007A280FD10DE044F400140AE044F480148D
:1022E00001E044F440147278824202D104F5801473
:1022F000761C761C307866280BD013DC582877D0F3
:1023000009DC002875D04528F6D04628F4D04728A7
:102310001AD19DE118E0632835D0642879D065286A
:1023200012D195E1702873D008DC6728F1D06928B4
:102330006FD06E280DD06F2806D1B5E073282CD051
:10234000752875D0782874D05A46179990476D1C17
:1023500075E1C4F30250022809D003280DD0D9F842
:10236000001004280DD00D6009F1040967E1D9F8C7
:102370000010EA17C1E90052F6E7D9F800100D8005
:10238000F2E70D70F0E719F8041B8DF8001000203B
:102390008DF80100EA46012003E059F804AB4FF044
:1023A000FF3061074FF0000102D40DE008F1010198
:1023B0008846B9420FDA8045F8DB1AF80810002980
:1023C000F4D108E008F1010188468142FADB1AF8ED
:1023D00008100029F6D105985B46A0EB08072146B6
:1023E0003846179A00F094FA284400EB080507E0F5
:1023F0004DE029E10DE01AF8010B5A461799904774
:10240000B8F10108F7D25B4621463846179A13E126
:1024100042E00A220092C4F302524FF0000A022A5C
:1024200008D059F804CB032A4FEAEC710AD00DE02A
:1024300029E02AE009F1070121F00702F2E802C1D0
:10244000914609E00FFA8CFC4FEAEC71042A03D1A3
:102450004FFA8CFC4FEAEC71002907DA0A4600219A
:10246000DCF1000C61EB02012D2202E0220504D513
:102470002B228DF80420012203E0E20701D0202264
:10248000F7E7904659E00A2102E010220DE0102102
:102490004FF0000A00910BE010224FF0000A44F0C8
:1024A00004040827009203E008224FF0000A00927B
:1024B000C4F30252022A05D059F804CB0021032AA2
:1024C00008D009E009F1070121F00702F2E802C192
:1024D000914605E01FFA8CFC042A01D10CF0FF0C98
:1024E0004FF00008220728D5702806D0009B83F003
:1024F000100353EA0A0305D00EE040228DF80420B1
:10250000012208E05CEA010206D030228DF80420A6
:102510008DF8050002229046009B83F0080353EAE1
:102520000A030AD15CEA010201D1620705D5302213
:102530008DF804204FF001087F1E582804D034A0E5
:1025400003900EA802900DE036A0F9E753466046CE
:10255000009AFEF755F884460398825C0298401E64
:10256000029002705CEA0100F0D1029806A9081AF4
:1025700000F1200A600702D524F4803400E001272E
:10258000574502DDA7EB0A0000E0002000EB0A013E
:10259000009005984144401A0590E00306D45B463C
:1025A0002146179A059800F0B3F90544002706E084
:1025B00001A85A46C05D179990476D1C7F1C47457E
:1025C000F6DBE0030CD55B462146179A059800F030
:1025D0009FF9054404E030205A46179990476D1C36
:1025E0000099481E00900029F5DC08E00298029945
:1025F0005A460078491C0291179990476D1CBAF110
:102600000001AAF1010AF1DC65E1000009280100DE
:102610003031323334353637383961626364656658
:10262000000000003031323334353637383941421A
:10263000434445460000000000F058F90544761C6C
:10264000307800287FF4ECAD19B02846BDE8F08F53
:10265000620700D4062709F1070222F0070CFCE804
:102660000223E14603F000485FEA080C02D00FF2B3
:10267000702C0DE05FEA045C02D50FF2682C07E0D5
:102680005FEAC47C02D00FF2602C01E0AFF2700C64
:102690004FF0FF3823F00043CDF850C065280CD030
:1026A00006DC452809D046281DD047283DD13DE00D
:1026B000662818D067287ED138E00021112F01DB71
:1026C000112000E0781CCDE9000106A90EA8FFF753
:1026D000DDFCDDE90F010E9A03910021009207F164
:1026E000010A04914DE04FF000400097CDE9011040
:1026F00006A90EA8FFF7CAFCDDE90F0203920E9BA4
:1027000011990022DDF80CA00093049211B9791CF4
:1027100000EB010AB7EB0A0004D4C0F1FF3007F167
:10272000010A0490AAEB0700019044E0012F00DAAF
:1027300001270021112F01DD112000E03846CDE9ED
:10274000000106A90EA8FFF7A1FCDDE90F010E9A12
:102750000391002104910092BA4621070CD40399F9
:10276000514500DA8A46BAF1010F05DD009AAAF157
:102770000101515C302908D0B84202DA10F1040F8F
:1027800006DA0121CDE9011015E0AAF10101E9E71E
:10279000002805DC049901440491AAEB000102E041
:1027A000411C514500DD8A460499401A401C0190A5
:1027B0004FF000400290200704D40198504501DBFF
:1027C000CDF8048000208DF84F0002980DF14F07DE
:1027D000B0F1004F25D02B200E9002984FF0020848
:1027E00000280CDA404202902D200E9007E00A21CA
:1027F0000298FDF7EFFE3031029007F8011DB8F1A5
:102800000001A8F10108F2DC02980028EFD1791E3E
:102810000E980870307800F0200040F0450007F86E
:10282000020D12A8C01B00F107081498007800B12F
:10283000012000EB0A01019801EBE0710598414489
:10284000401A401E0590E00306D45B462146179AC5
:10285000059800F05DF805441498007818B15A46C0
:10286000179990476D1CE00324D55B462146179AC3
:10287000059800F04DF805441CE00498002807DB9B
:10288000DDE90301884203DD0098405C179901E00F
:10289000179930205A469047049805F10105401CCD
:1028A00004900198401E019004D12E205A46179999
:1028B00090476D1CBAF10001AAF1010ADDDC05E0C8
:1028C00017F8010B5A46179990476D1CB8F1000193
:1028D000A8F10108F4DC5B462146179A0598ABE69F
:1028E0002D0000002B000000200000002DE9F04129
:1028F000044600251E461746880404D405E03946E0
:102900002020B0476D1C641EF9D52846BDE8F08133
:102910002DE9F041044600251E469046C80301D526
:10292000302700E02027880404D505E041463846DA
:10293000B0476D1C641EF9D52846BDE8F08181685A
:1029400041F008018160816811F0080FFBD18168B6
:1029500041F004018160816811F0040FFBD17047E0
:102960001205A2F5801201290CD0022918BF704768
:10297000816B21F44011816302F44011826B114399
:1029800081637047C16A21F47001C16202F4700171
:10299000C26A1143C16270470029816814BF41F4C3
:1029A000006121F4006181607047816811F0010FBE
:1029B00018BF7047816841F0010181607047002AAB
:1029C00001F001020DD01AB1826842F480128260D7
:1029D00011F0020F1ABF816841F400417047816015
:1029E00070471AB1826822F48012826011F0020FDF
:1029F0001CBF816821F40041F1D1704701290AD040
:102A0000022918BF7047816821F4E0418160816824
:102A1000114381607047816821F460218160816881
:102A200011438160704710B4D0F838C0846BCCF388
:102A3000015CA1EB0C01C91C01EB81014FF01F0CE3
:102A40000CFA01FC24EA0C0C02FA01F141EA0C0137
:102A5000816307210A2A0CD2D0F810C002EB42028F
:102A600091402CEA010103FA02F21143016110BC0A
:102A70007047122A24BF10BC7047D0F80CC00A3A25
:102A800002EB420291402CEA010103FA02F21143E7
:102A9000C16010BC7047000004490A6822F470222B
:102AA0000A600A681043086070470000042401406F
:102AB00011F0010F03D0826842F48002826011F0AD
:102AC000020F08BF7047816841F4001181607047B0
:102AD000002A01F4807214D01AB1426842F4807264
:102AE000426011F4806F03D0426842F48062426019
:102AF00011F0020F1ABF816841F002017047816036
:102B000070471AB1426822F48072426011F4806FFB
:102B100003D0426822F48062426011F0020F1CBFB1
:102B2000816821F00201EAD1704700000248016883
:102B300041F4000101607047082401409FED1A1A1A
:102B4000F5EE000A40EE010ABDEEE00AF5EEC00A1D
:102B500010EE100AF1EE10FA38BF401E00EE100A17
:102B60001349F7EE001AB8EEC00A30EEC00ADFEDE6
:102B70000F0A20EE200AFCEEC00A10EE900AC0F305
:102B8000080000EE900A01EB8000F8EE600A90ED7C
:102B9000011A70EE600A90ED000A71EEE01A21EE63
:102BA000800A00EE810A704783F9223E000000444B
:102BB000E8480008B5EEC00AF1EE10FA05D210EEB2
:102BC000100A1C49814228BF7047DFED1B0AB5EE91
:102BD000C00A60EE200ABDEEE01A11EE100AF1EE16
:102BE00010FA38BF401E00EE100A1549F7EE001A21
:102BF000B8EEC00A30EEC00ADFED100A60EE200A1F
:102C0000BCEEE00A10EE100AC0F3080000EE100A55
:102C100001EB8000B8EE400A90ED011A70EEC00A98
:102C200090ED000A71EEE01A21EE800A00EE810AB2
:102C300070470000CD024CB483F9223E00000044EE
:102C4000E848000870B4224D2B6883432B602C1D8C
:102C5000236883432360231DD3F800C02CEA000CB3
:102C6000C3F800C003F1040CDCF800608643CCF824
:102C7000006011B1012904D006E0296801432960F0
:102C800002E021680143216082B1012A16D0022AA4
:102C90001CBF70BC7047196801431960DCF8001054
:102CA00050EA0100CCF8000070BC7047196801437D
:102CB0001960DCF8001021EA0000F3E7196881438D
:102CC0001960DCF800100843CCF8000070BC7047B5
:102CD00000040140014908607047000014040140ED
:102CE00005490968054A0142126802EA000016BF58
:102CF0000028002001207047140401400004014016
:102D000070B5074D0446C1B2284600F091FE072178
:102D1000284600F0E0FE0028F9D0204670BD0000F3
:102D20000038014041617047016170478A074FEAEE
:102D3000127C0F2202FA0CF3124A00FA0CF004295A
:102D400006D29168994391609168084390607047FA
:102D5000082906D2D1689943D160D1680843D06070
:102D600070470C2906D21169994311611169084312
:102D7000106170475169994351615169084350612D
:102D800070470000000001402DE9F00301F00F0C36
:102D900011F0100F04D0042A18BF4CEA020C3FD0E7
:102DA00000220F265FF0010404FA02F51D4012D044
:102DB000D0F80080970006FA07F90CFA07F728EA1E
:102DC000090847EA0807282908BF456102D04829B1
:102DD00008BF05610760521C92B2082AE4D308229A
:102DE00004FA02F51D4014D047684FEA8208A8F1A2
:102DF000200806FA08F90CFA08F827EA090748EA51
:102E00000707282908BF456102D0482908BF056186
:102E10004760521C92B2102AE2D3BDE8F00370471B
:102E2000C26B4CF0030C1A43C263B9E700B583B020
:102E30004FF4407000F00AF94FF47A30FFF7B6F81B
:102E40001BA0FFF703F91BA0FFF700F9FDF7C8FF70
:102E50001EA0FFF7FBF8FDF79FFF22A0FFF7F6F893
:102E6000FDF706FD25A0FFF7F1F8FEF793FB29A07B
:102E7000FFF7ECF8FEF7BEFA2CA0FFF7E7F8FEF735
:102E80009BFD30A0FFF7E2F8FEF79CF833490220E3
:102E9000CDE900010023802231A1344801F006FB76
:102EA00000F0DEFF32A0FFF7D1F803B0002000BD34
:102EB000200D0A0020555341525420496E69742058
:102EC0007375636365656465640D0A00204C454451
:102ED00020496E6974207375636365656465640D6C
:102EE0000A000000204B657920496E6974207375D3
:102EF000636365656465640D0A0000002041444316
:102F000020496E6974207375636365656465640D3B
:102F10000A0000002053504920496E6974207375DF
:102F2000636365656465640D0A0000002050574DB9
:102F300020496E6974207375636365656465640D0B
:102F40000A0000002053746F726520496E69742076
:102F50007375636365656465640D0A001000002085
:102F600073746172745F7461736B000039160008CA
:102F700020506F737369626C652052414D206F76EB
:102F80006572666C6F77212121200D0A0000000018
:102F900070B42C4C4FF0000C63462568660D36EA81
:102FA000050508BF04232FD0D4F800C00CF4E06C52
:102FB000BCF5C06F04BF4FF0010C032324D0D4F83C
:102FC00000C00CF4E06CBCF5A06F04BF4FF0020C25
:102FD000634619D0D4F800C00CF4E06CBCF5806FE7
:102FE00004BF4FF0030C01230ED0D4F800C00CF442
:102FF000E06CBCF5407F08BF4FF0040C04D0124BCE
:1030000023604FF0020C6346CCF1040C01FA0CF182
:10301000C3F104034FF00F0C2CFA03F31A401143D1
:1030200000F1E022090182F8001400F01F010122E2
:1030300002FA01F14009800000F1E020C0F800111F
:1030400070BC70470CED00E00005FA05034940F044
:10305000FD7040F080600860704700000CED00E0FB
:103060002DE9F04105464068C01C20F003071420FC
:1030700000F0DEF804002DD0002628682661C4E99F
:103080000207286800F0D4F86060F8B12868784337
:1030900000F0CEF82060B0B12868D8B1002110F05F
:1030A000010002D061680E7001212A68824211D9A4
:1030B0006268801C56546268491C56542A68491C30
:1030C0008242F5D806E0606800F0DEFD204600F0A0
:1030D000DBFD00242046BDE8F08100002DE9F04131
:1030E000194C0F460546E6682068001D00F05DFD9E
:1030F00048B92068012190F82C0001FA00F02169FC
:1031000021EA00002061B5F1FF3F07D137B1206807
:10311000BDE8F041011D0D4800F08FBD2068354429
:10312000B5424560206800F1040104D2A06BBDE8FF
:10313000F04100F065BD606B00F062FDA06AA8423E
:1031400088BFA562BDE8F0816400002090450020A2
:10315000164E154CDFF85890A6F1A0074FF0805896
:103160006068B8B100F076FDF068C568281D00F011
:103170001CFDA068401EA0606068401E606000F0FA
:1031800077FD286B00F080FD284600F07DFD60682B
:103190000028E7D138680128E2D9C9F80080BFF3D8
:1031A0004F8FBFF36F8FDBE7640000207C4500206A
:1031B00004ED00E0BF2080F31188BFF34F8FBFF311
:1031C0006F8FFEE770B5044600F044FD94F945505A
:1031D000002D0DDD606A58B104F1240001F08EFA73
:1031E000002818BF00F026FE681E45B2002DF1DC55
:1031F0004FF0FF3684F8456000F03AFD00F02AFDFC
:1032000094F94450002D0DDD206958B104F11000EF
:1032100001F074FA002818BF00F00CFE681E45B2D9
:10322000002DF1DC84F84460BDE8704000F020BD62
:103230002DE9F05F0646002400F040FEDFF830C1C3
:1032400000250CF11800DCF8001009BB49494FF4C7
:10325000884211F0070F06D0C91D464A21F0070128
:103260008A1AC2F588420A44083AC0E9001522F0D9
:103270000702CCF800205560531A1560C1E90023FD
:10328000CCF808304FF00041CCF80430CCF81410E2
:10329000DCF814703E4265D1002E63D006F10802BE
:1032A00012F0070F04D002F00701C1F108010A442F
:1032B000002A57D0DCF80460B2429CBF2E4B016854
:1032C00050D84868904205D2086800281CBF0B46B9
:1032D0000146F6D1DCF80080414543D0186800F182
:1032E0000804086818604868801A102828D98B18C4
:1032F00058604A60204A1068984238BF0246FAD3A4
:10330000D2F8049009EB020A9A4503D15B684B445A
:1033100053601346D3F8049009EB030A824518BFA3
:1033200018600AD1404508BFC3F8008005D0406846
:10333000484458601068006818609A4218BF1360CB
:103340004868321ACCF80420DCF80830934288BF71
:10335000CCF808203843C1E90050DCF80C00401CD0
:10336000CCF80C0001F0FCF92046BDE8F09F00000D
:1033700044000020DC0000205C0000204FF0807C36
:1033800040F804CC21F0010140F8081C054B40F83E
:103390000C3C40F8202C6FF0020240F8242C4438FA
:1033A00070470000B531000830B4044688B00020F2
:1033B0000FF2F80C9CE80E108DE80E103CA2D2E93A
:1033C0000012CDE904123AA2D2E90012CDE90612A8
:1033D0003A494A68C2F38103394A002B18BF012BCE
:1033E00026D0022B24D14B6803F48033B3F5803F01
:1033F00018BF344B4BD04A68D1F804C0C2F38342A3
:103400001CF0006F18BF42F01002D1F804C01CF08D
:10341000804F18BF42F020020F2A38BF921C06D3FB
:10342000A2F10F0CBCF12F0F94BF521C3F225A4344
:103430004B68D1F804C0C3F303131DF8033022FA1C
:1034400003F3CCF3022C04AD496815F80CC023FA41
:103450000CFCC1F3C22106AD695C23FA01F1002C1A
:1034600001BF104608B030BC7047012C01BF1846A0
:1034700008B030BC7047022C01BF604608B030BCB9
:103480007047032C08BF084608B030BC7047CB6AB1
:1034900013F0804F0CBF13460B4B4A6802F4003206
:1034A000B2F5003F08BF5B08A5E700000000000080
:1034B0000000000001020304060708090010024092
:1034C00000127A0000093D00006CDC02810901F164
:1034D000804101F504310A6800F01F00012303FA5E
:1034E00000F0104308607047810901F1804101F547
:1034F00004310A6800F01F00012303FA00F022EAF9
:10350000000008607047810901F1804101F5043134
:103510000A6800F01F00012303FA00F0104308605E
:103520007047016841F040010160704702680B6814
:1035300002F441521A434B681A438B681A43CB6812
:103540001A430B691A434B6989691A431143016095
:10355000C16921F40061C1617047016841F08001D7
:103560000160704710B4784BDFF8E0C169B30129FE
:103570006AD002297ED003291CBF10BC7047016AA3
:1035800021F480510162C16921F44071C161016A75
:10359000148841EA04310162016A21F40051016298
:1035A000016A948841EA0431016298421EBF604575
:1035B00010BC7047416821F4804141604168128924
:1035C00041EA8211416010BC7047016A21F001019B
:1035D0000162816921F003018161016A148841EA75
:1035E00004010162016A21F002010162016A94880A
:1035F00041EA0401016298421EBF604510BC704759
:10360000016A21F004010162016A538841EA030161
:103610000162016A21F008010162016AD38841EA6E
:1036200003010162416821F480714160416813899E
:1036300041EA03014160416821F400714160416841
:10364000528941EA0201BDE7016A21F010010162DD
:10365000816921F440718161016A148841EA041191
:103660000162016A21F020010162016A948841EA45
:10367000041100E029E0016298421EBF604510BCC1
:103680007047016A21F040010162016A538841EAF2
:1036900003110162016A21F080010162016AD3888D
:1036A00041EA03110162416821F48061416041688F
:1036B000138941EA83014160416821F4006141605E
:1036C0004168528941EA82017CE7016A21F48071F4
:1036D0000162C16921F00301C161016A148841EAF4
:1036E00004210162016A21F400710162016A948877
:1036F00041EA0421016298421EBF604510BC704738
:10370000016A21F480610162016A538841EA032160
:103710000162016A21F400610162016AD38841EA11
:1037200003210162416821F480514160416813899D
:1037300041EA03114160416821F400514160416850
:10374000528941EA02113DE7002C0140003401405A
:1037500079B1012914D002291BD0032918BF704761
:10376000C16921F4E041C161C16941EA0221C1613D
:103770007047816921F0700181618169114306E020
:10378000816921F4E0418161816941EA022181611D
:103790007047C16921F07001C161C1691143E6E759
:1037A000002904BF42637047012904BF8263704748
:1037B000022904BFC2637047032908BF026470472F
:1037C00079B1012914D002291BD0032918BF7047F1
:1037D000C16921F40061C161C16941EA0221C1618D
:1037E0007047816921F0080181618169114306E018
:1037F000816921F400618161816941EA022181616D
:103800007047C16921F00801C161C1691143E6E750
:10381000374A10B5811A904255D018DCB0F1804F6C
:1038200033D0A0F58060B0F1804038D0B0F5806F23
:103830003FD0B0F5006F18BF10BD40F20340FFF756
:1038400062FEBDE8104040F20340FFF74DBEB1F507
:10385000806F42D0B1F58E3F0DD0B1F5923F18BFC9
:1038600010BD40F20D30FFF74EFEBDE8104040F2B3
:103870000D30FFF739BE40F20B30FFF744FEBDE8D4
:10388000104040F20B30FFF72FBE4FF48060FFF77F
:103890003AFEBDE810404FF48060FFF725BE40F2CD
:1038A0000140FFF730FEBDE8104040F20140FFF755
:1038B0001BBE40F20240FFF726FEBDE8104040F27A
:1038C0000240FFF711BE40F20440FFF71CFEBDE8C6
:1038D000104040F20440FFF707BE40F20540FFF7FA
:1038E00012FEBDE8104040F20540FFF7FDBD0000AC
:1038F00000100040016841F00101016070470000C4
:1039000010B40A888262294B294A984218BFB0F144
:10391000804F10D0A0F1804CBCF5806C1CBFA0F192
:10392000804CBCF5006C06D0A0F1804CBCF5406C1E
:1039300018BF904213D1D0F800C02CF0700CC0F822
:1039400000C0D0F800C04C884CEA040CC0F800C09D
:10395000D0F800C08C884CEA040CC0F800C0D1F844
:1039600008C0C0F82CC0A0F1804CBCF5805C1CBF26
:10397000A0F1804CBCF5A05C11D0D0F800C02CF4B4
:10398000407CC0F800C0D0F800C0CC884CEA040CE1
:10399000C0F800C0984212BF9042097B01634169A0
:1039A00041F00101416110BC70470000002C014052
:1039B00000340140C2681143C16070470129416C65
:1039C0000CBF41F4004121F4004141647047000004
:1039D00070B50446154A0D460020A11A944216D02F
:1039E0000ADCA4F18041B1F5884108BF02200BD068
:1039F000B1F5806F0BD00DE0B1F5806F07D0B1F558
:103A00006C4F08BF032005D1FFF7CEFC02E0022077
:103A1000FFF7CAFC00EB5500B0FBF5F04FF6F07174
:103A2000014000F00F000843A06070BD004C004052
:103A3000C1F3080141607047234A10B5811A9042D2
:103A40002ED012DCA0F58840B0F180401ED0B0F539
:103A5000806F18BF10BD40F21240FFF754FDBDE863
:103A6000104040F21240FFF73FBDB1F5806F21D00A
:103A7000B1F56C4F18BF10BD40F20E30FFF743FD9B
:103A8000BDE8104040F20E30FFF72EBD40F211406D
:103A9000FFF739FDBDE8104040F21140FFF724BDAB
:103AA00040F21340FFF72FFDBDE8104040F21340F5
:103AB000FFF71ABD40F21440FFF725FDBDE81040A6
:103AC00040F21440FFF710BD004C0040C16841F4C3
:103AD0000051C160704700EB9110006801F01F01B8
:103AE000012202FA01F1084018BF01207047426923
:103AF00022F40072114341617047426922F48072DE
:103B000011434161704700EB9110026801F01F0101
:103B1000012303FA01F111430160704700EB91505A
:103B20000268C1F30441012303FA01F122EA010111
:103B300001607047C1F38912825800EB915001F087
:103B40001F0C012303FA0CFC006802EA0C02C1F30B
:103B5000044103FA01F1084216BF002A00200120A7
:103B60007047C26822F4C062C260C2681143C1607B
:103B70007047C26822F004021143C16070470269B5
:103B800022F4405202610269114301617047C26828
:103B900022F008021143C1607047C26822F48052CB
:103BA000C260C2681143C1607047D0E90132016947
:103BB0009A60D0E901235A604A68824204BF826851
:103BC0004A60002202610868401E08600868704769
:103BD00010B5044600F03EF8A46B00F049F820460A
:103BE00010BD00F108014FF0FF32C0E90112C160C1
:103BF00001610021016070470021016170470000F0
:103C000010B40B68B3F1FF3F0CBF026900F108026A
:103C100008D000BFD2F804C0DCF800409C4298BF36
:103C20006246F7D953684B6099608A6051600861B9
:103C30000168491C016010BC704742684A60936883
:103C40008B6093685960916008610168491C01604C
:103C500070470000BF2080F31188BFF34F8FBFF380
:103C60006F8F02480168491C0160704740000020C6
:103C700004490868401E086018BF7047002080F3A0
:103C80001188704740000020002808BF704770B5B9
:103C90001F4EA0F1080550F8041C7069014208BFCE
:103CA00070BD2A68002A18BF70BD21EA0000686054
:103CB00000F004F968687168164C08447060206868
:103CC000A84238BF0446FAD361680A19AA4203D150
:103CD0006A6825461144616069684A19824218BFC2
:103CE00028600AD13268904208BF2A6005D0406837
:103CF00008446860206800682860AC4218BF2560EE
:103D00003069401C3061BDE8704000F029BD000002
:103D1000440000205C0000204FF0E0200021016101
:103D2000816102494161072101617047BFD40100EF
:103D300010B558B10A490A6B521C0A630021FFF7FB
:103D4000CDF900F00DFD002818BF10BD4FF08050D8
:103D500004490860BFF34F8FBFF36F8F10BD0000A1
:103D60006400002004ED00E070B50546FFF772FF27
:103D7000284C002D08BF2568281DFFF716FF68B9DD
:103D8000E86A254A00EB800152F8211031B901217F
:103D900001FA00F0216921EA00002061A86A0028E8
:103DA0001CBF05F11800FFF700FF606A401C60624D
:103DB0002068854207D1291D1848FFF73EFF60683B
:103DC000401C606012E0A068401EA060286BFFF7F6
:103DD0005BFF2846FFF758FF606B006800280FBFA5
:103DE0004FF0FF30606BC0680068A062FFF740FFD3
:103DF0006069002808BF70BD2068854218BF70BD8B
:103E00004FF0805006490860BFF34F8FBFF36F8FAC
:103E100070BD000064000020DC4400207C450020D0
:103E200004ED00E002490A6A0260C9684160704717
:103E30006400002001490120C8617047640000202F
:103E4000064A10B512680C4602F11801FFF7D8FEB9
:103E50002046BDE810400121FFF740B96400002072
:103E600010B582B010480024CDE9004023468022DE
:103E70000EA1104800F01AFB01281CBF02B010BDB3
:103E8000BF2080F31188BFF34F8FBFF36F8F0A48B5
:103E90004FF0FF31816201214161C46002B0BDE891
:103EA000104000F037B800009000002049444C4515
:103EB0000000000051310008640000200248016B3E
:103EC000491C016370470000640000200F48016B2B
:103ED00000291EBF0121C16170470021C161016934
:103EE0000B4AB1FA81F1C1F11F0101EB810102EB33
:103EF000810101F108034A6852684A609A4204BF8E
:103F000052684A60D1680160704700006400002078
:103F1000DC4400200C4810B5016841F47F010160C9
:103F2000016841F07F410160FFF7F6FE074900207C
:103F30000860FCF72BF90648016841F04041016038
:103F4000FCF710F9002010BD20ED00E0400000203B
:103F500034EF00E02DE9F04106460D4600274820E9
:103F6000FFF766F9040008BFBDE8F0812460C4E9EA
:103F70000F67FFF76FFED4E90F12206801FB020004
:103F8000A0600020A0632068491E606001FB020061
:103F9000E0604FF0FF3084F8440084F8450004F1FD
:103FA0001000FFF71EFE04F12400FFF71AFEFFF7D2
:103FB0005FFE2046A563BDE8F08170B50C4606465D
:103FC00060434830FFF734F9050028D005F1480177
:103FD000002C0CBF00600160C0E90F640446FFF7CD
:103FE00039FED4E90F12206801FB0200A060002016
:103FF000A0632068491E606001FB0200E0604FF092
:10400000FF3084F8440084F8450004F11000FFF705
:10401000E8FD04F12400FFF7E4FDFFF729FE284640
:1040200070BD00002DE9FF47002782B01D460E46F7
:104030000446BA464FF08058DFF83091FFF70AFE89
:10404000A06BE16B884207D3022D05D004980028AD
:104050003DD0002F3ED041E02F46A56B3146226C6B
:1040600002B37FB1E068FCF7DFF8E168206C091A61
:10407000E1602268914202D2A168081AE060022F32
:1040800010D10CE06068FCF7CFF8216C6068084440
:104090006060A168884224BF2068606002E0002D53
:1040A00018BF6D1E681CA063606A50B104F1240043
:1040B00000F024FB28B1C9F80080BFF34F8FBFF395
:1040C0006F8FFFF7D5FD06B00120BDE8F087FFF741
:1040D000CFFD23E06846FFF7A5FE0127FFF7C8FDE7
:1040E000FFF7ECFEFFF7B6FD94F94400B0F1FF3F97
:1040F00008BF84F844A094F94500B0F1FF3F08BF21
:1041000084F845A0FFF7B4FD04A9684600F09EF9C5
:1041100040B12046FFF756F800F022FB06B0002021
:10412000BDE8F087FFF796FDA06BE16B884215D1E3
:10413000FFF79EFD04F110000499FFF781FE204671
:10414000FFF740F800F00CFB00287FF477AFC9F8C8
:104150000080BFF34F8FBFF36F8F6FE7FFF788FDCE
:104160002046FFF72FF800F0FBFA67E704ED00E0C8
:1041700070B50D46BF21EFF3118481F31188BFF3B1
:104180004F8FBFF36F8F816BC26B8A4298BF002045
:1041900009D990F94520491C8163511C18BF80F84A
:1041A000451003D0012084F3118870BD416A0029B5
:1041B000F8D0243000F0A2FA00281EBF002D012004
:1041C0002860EFE72DE9F7470027DFF808A183B063
:1041D0000E460446B8464FF0805900BFFFF73AFD3F
:1041E000A56B0DB3226C30464AB1E1681144E16021
:1041F000A368994224BF2168E160FCF715F8681EA6
:10420000A063206950B104F1100000F077FA28B1E2
:10421000CAF80090BFF34F8FBFF36F8FFFF728FDF1
:1042200006B00120BDE8F087059800284CD01FB9E2
:104230006846FFF7F7FD0127FFF71AFDFFF73EFE7F
:10424000FFF708FD94F94400B0F1FF3F08BF84F880
:10425000448094F94500B0F1FF3F08BF84F84580E1
:10426000FFF706FD05A9684600F0F0F858B12046B2
:10427000FEF7A8FF00F074FAFFF7ECFCA06B18B390
:10428000FFF7F6FCAAE7FFF7E5FCA06B38B1FFF7F4
:10429000EFFC2046FEF796FF00F062FA9EE7FFF77C
:1042A000E7FC04F124000599FFF7CAFD2046FEF75C
:1042B00089FF00F055FA002890D1CAF80090BFF3AA
:1042C0004F8FBFF36F8F89E7FFF7D2FC06B0002056
:1042D000BDE8F08704ED00E02DE9F0410446164604
:1042E000BF20EFF3118580F31188BFF34F8FBFF329
:1042F0006F8FD4F83880B8F1000F08BF002018D0B5
:1043000094F944700846216C51B1E2681144E160AF
:10431000A268914224BF2168E160226CFBF784FF10
:10432000A8F10100A063781C18BF84F8440004D0F1
:10433000012085F31188BDE8F08120690028F7D0BD
:1043400004F1100000F0DAF900281EBF002E012051
:104350003060EDE72DE9F341002582B004462E469A
:104360004FF08057DFF8E080FFF774FCA06BA0B13E
:10437000401EA063206950B104F1100000F0BEF9A6
:1043800028B1C8F80070BFF34F8FBFF36F8FFFF7EE
:104390006FFC04B00120BDE8F081039800284CD0E8
:1043A0001DB96846FFF73EFD0125FFF761FCFFF7E9
:1043B00085FDFFF74FFC94F94400B0F1FF3F08BFC3
:1043C00084F8446094F94500B0F1FF3F08BF84F8D9
:1043D0004560FFF74DFC03A9684600F037F858B177
:1043E0002046FEF7EFFE00F0BBF9FFF733FCA06BB1
:1043F00018B3FFF73DFCB7E7FFF72CFCA06B38B113
:10440000FFF736FC2046FEF7DDFE00F0A9F9ABE72A
:10441000FFF72EFC04F124000399FFF711FD20465D
:10442000FEF7D0FE00F09CF900289DD1C8F800707E
:10443000BFF34F8FBFF36F8F96E7FFF719FC04B000
:104440000020BDE8F081000004ED00E02DE9F0411E
:104450000C460546FFF7FEFB134AD368D5F804C0A7
:104460002068A3EB0C01B0F1FF3F08BF002516D078
:104470002F68D2F820800026474504D09C459CBF79
:10448000012526600BD988429CBF2660012506D9EC
:10449000401A2060106A2860D06868600025FFF725
:1044A000E7FB2846BDE8F081640000202DE9F05FBD
:1044B0008146DDE90A5A9B4690460F469000FEF77A
:1044C000B7FE06004DD04C20FEF7B2FE040045D0EA
:1044D0006FF0030000EB880030442663002620F0D4
:1044E0000708002F0CBF84F8346000200BD021187F
:1044F0003A5C81F83420395C00291CBF401C10282C
:10450000F5D384F84360052D28BF0425201DE562FE
:10451000FFF772FB04F11800FFF76EFB2461C5F191
:1045200005016462A161666484F848605A464946A0
:104530004046FEF723FF2060BAF1000F18BFCAF80B
:1045400000402546FFF786FB2F4EB068401CB06048
:1045500030682E4F48B1706958B330E03046FFF7ED
:1045600093FB4FF0FF30BDE8F09F3560B068012845
:1045700008BF002423D100BF04EB840007EB8000B8
:10458000FFF72FFB641C052CF6D32148FFF729FB0E
:104590002048FFF726FB2048FFF723FB1F48FFF7C3
:1045A00020FB1F48FFF71DFB194870631430B063F0
:1045B00005E03068E96AC06A884298BF3560706A71
:1045C0000121401C7062E86A326981401143316107
:1045D00000EB800007EB8000291DFFF72EFBFFF7A3
:1045E00047FB706960B13068E96AC06A884207D2E7
:1045F0000C494FF080500860BFF34F8FBFF36F8FAF
:104600000120BDE8F09F000064000020DC44002091
:104610004045002054450020684500207C4500208E
:104620009045002004ED00E02DE9F047314E0027D1
:10463000306B28B1B069401CB0613846BDE8F087E6
:10464000F068451CF5604FF0FF3911D1706BB16B0C
:104650007163B063306A401C3062706B0068002880
:1046600008BFC6F8289003D0706BC0680068B062BD
:10467000B06ADFF88480A84298BF4FF0010A0CD8D6
:10468000706B006838B1706BC068C4686068854240
:1046900011D2B06201E0C6F828903068C06A00EB21
:1046A000800058F82000012888BF0127F069002801
:1046B00018BF0127C1E7201DFFF777FAA06A00287D
:1046C0001CBF04F11800FFF770FAE06A32690AFAB9
:1046D00000F11143316100EB800008EB8000211DE7
:1046E000FFF7ABFAE06A3168C96A884228BF012740
:1046F000C6E7000064000020DC44002070B5C068FC
:10470000C56805F11800FFF750FA124C206B01261E
:1047100000281CBF05F118010F480AD0FFF78DFAD9
:10472000E86A2168C96A884286BF0120E6610020E4
:1047300070BD281DFFF739FAE86A226906FA00F110
:1047400011432161054900EB800001EB8000291D28
:10475000E4E700006400002068450020DC440020FD
:104760002DE9F05F4FF0000BFFF774FA5B4D286BFB
:10477000401E2863286B002855D1A868002852D015
:10478000574E306801274FF0FF39A6F18C0A0028F8
:104790002BD0F068C46804F11800FFF706FA201D5A
:1047A000FFF703FAE06A2A6907FA00F11143296169
:1047B00000EB80000AEB8000211DFFF73EFAE06A63
:1047C0002968C96A884228BFEF6130680028E0D1B3
:1047D0005CB1696B28460968002908BFC0F82890B9
:1047E00003D0416BC96809688162D5F81880B8F1B7
:1047F000000F0CD0286B4FF00009C8B1A869401C0D
:10480000C5F81800B8F10108F4D10020A861E869E2
:1048100048B134494FF080504FF0010B0860BFF3AE
:104820004F8FBFF36F8FFFF723FA5846BDE8F09F15
:10483000E868461CEE600DD0A86AB0421FD8686BCD
:104840000068C8B1686BC068C4686068864225D2D9
:10485000A86214E0686BA96B6963A863286A401CAE
:104860002862686B006800281DBF686BC06800681C
:104870004FF0FF30A862DFE74FF0FF30A8622868F2
:10488000C06A00EB80005AF820000128E86998BF50
:1048900000280CBFB9F1000FEF61B3E704F1040089
:1048A000FFF783F9A06A00281CBF04F11800FFF786
:1048B0007CF9E06A2A6907FA00F11143296100EBEB
:1048C00080000AEB8000211DFFF7B7F9E06A296834
:1048D000C96A884228BF4FF00109B0E76400002090
:1048E0006845002004ED00E000000000920E493C05
:1048F000B10AC93C2BC3163D2EFB483D752B7B3DB1
:1049000004A9963D80B6AF3D36BDC83D2FBCE13D04
:1049100073B2FA3D87CF093E8340163EB5AB223EC7
:10492000A2102F3ECF6E3B3EC2C5473E0115543EFE
:10493000135C603E7F9A6C3ECCCF783EC07D823E59
:10494000938E883E229A8E3E32A0943E86A09A3E56
:10495000E59AA03E128FA63ED47CAC3EEF63B23EF9
:104960002A44B83E491DBE3E15EFC33E53B9C93E69
:10497000CA7BCF3E4136D53E80E8DA3E4F92E03EDC
:104980007533E63EBBCBEB3EEA5AF13ECBE0F63E5A
:10499000275DFC3EE4E7003F3D9C033F824B063F22
:1049A0009BF5083F6B9A0B3FDA390E3FCDD3103F92
:1049B0002A68133FD9F6153FC07F183FC6021B3F38
:1049C000D17F1D3FCBF61F3F9967223F25D2243F61
:1049D0005636273F1594293F4AEB2B3FDE3B2E3FAF
:1049E000BB85303FC9C8323FF304353F233A373FD8
:1049F0004268393F3B8F3B3FF9AE3D3F67C73F3F82
:104A000070D8413F01E2433F03E4453F65DE473F45
:104A100012D1493FF8BB4B3F029F4D3F207A4F3F99
:104A20003D4D513F4918533F31DB543FE595563FCB
:104A30005348583F6AF2593F1A945B3F532D5D3FEC
:104A400005BE5E3F2146603F97C5613F5A3C633FCC
:104A500059AA643F880F663FD86B673F3CBF683FE9
:104A6000A7096A3F0C4B6B3F5E836C3F93B26D3F6F
:104A70009ED86E3F73F56F3F0809713F5213723F26
:104A80004714733FDD0B743F0BFA743FC6DE753F6E
:104A900007BA763FC58B773FF853783F9812793F36
:104AA0009DC7793F02737A3FBE147B3FCDAC7B3FFD
:104AB000283B7C3FC9BF7C3FAC3A7D3FCCAB7D3FC0
:104AC00023137E3FB0707E3F6DC47E3F580E7F3F04
:104AD0006D4E7F3FAB847F3F0FB17F3F97D37F3FCA
:104AE00043EC7F3F11FB7F3F0000803F11FB7F3F86
:104AF00043EC7F3F97D37F3F0FB17F3FAB847F3F36
:104B00006D4E7F3F580E7F3F6DC47E3FB0707E3F3D
:104B100023137E3FCCAB7D3FAC3A7D3FC9BF7C3F8A
:104B2000283B7C3FCDAC7B3FBE147B3F02737A3F7A
:104B30009DC7793F9812793FF853783FC58B773FEF
:104B400007BA763FC6DE753F0BFA743FDD0B743F44
:104B50004714733F5213723F0809713F73F56F3F5B
:104B60009ED86E3F93B26D3F5E836C3F0C4B6B3FA4
:104B7000A7096A3F3CBF683FD86B673F880F663F15
:104B800059AA643F5A3C633F97C5613F2146603F45
:104B900005BE5E3F532D5D3F1A945B3F6AF2593F5D
:104BA0005348583FE595563F31DB543F4918533F32
:104BB0003D4D513F207A4F3F029F4D3FF8BB4B3F49
:104BC00012D1493F65DE473F03E4453F01E2433FE1
:104BD00070D8413F67C73F3FF9AE3D3F3B8F3B3FFA
:104BE0004268393F233A373FF304353FC9C8323F63
:104BF000BB85303FDE3B2E3F4AEB2B3F1594293FD0
:104C00005636273F25D2243F9967223FCBF61F3FD8
:104C1000D17F1D3FC6021B3FC07F183FD9F6153F0D
:104C20002A68133FCDD3103FDA390E3F6B9A0B3F02
:104C30009BF5083F824B063F3D9C033FE4E7003F66
:104C4000275DFC3ECBE0F63EEA5AF13EBBCBEB3EA5
:104C50007533E63E4F92E03E80E8DA3E4136D53E7F
:104C6000CA7BCF3E53B9C93E15EFC33E491DBE3E78
:104C70002A44B83EEF63B23ED47CAC3E128FA63ECF
:104C8000E59AA03E86A09A3E32A0943E229A8E3E9D
:104C9000938E883EC07D823ECCCF783E7F9A6C3E1C
:104CA000135C603E0115543EC2C5473ECF6E3B3E8D
:104CB000A2102F3EB5AB223E8340163E87CF093E61
:104CC00073B2FA3D2FBCE13D36BDC83D80B6AF3D65
:104CD00004A9963D752B7B3D2EFB483D2BC3163D0D
:104CE000B10AC93C920E493C00000000920E49BC3A
:104CF000B10AC9BC2BC316BD2EFB48BD752B7BBDAD
:104D000004A996BD80B6AFBD36BDC8BD2FBCE1BD00
:104D100073B2FABD87CF09BE834016BEB5AB22BEC3
:104D2000A2102FBECF6E3BBEC2C547BE011554BEFA
:104D3000135C60BE7F9A6CBECCCF78BEC07D82BE55
:104D4000938E88BE229A8EBE32A094BE86A09ABE52
:104D5000E59AA0BE128FA6BED47CACBEEF63B2BEF5
:104D60002A44B8BE491DBEBE15EFC3BE53B9C9BE65
:104D7000CA7BCFBE4136D5BE80E8DABE4F92E0BED8
:104D80007533E6BEBBCBEBBEEA5AF1BECBE0F6BE56
:104D9000275DFCBEE4E700BF3D9C03BF824B06BF1E
:104DA0009BF508BF6B9A0BBFDA390EBFCDD310BF8E
:104DB0002A6813BFD9F615BFC07F18BFC6021BBF34
:104DC000D17F1DBFCBF61FBF996722BF25D224BF5D
:104DD000563627BF159429BF4AEB2BBFDE3B2EBFAB
:104DE000BB8530BFC9C832BFF30435BF233A37BFD4
:104DF000426839BF3B8F3BBFF9AE3DBF67C73FBF7E
:104E000070D841BF01E243BF03E445BF65DE47BF41
:104E100012D149BFF8BB4BBF029F4DBF207A4FBF95
:104E20003D4D51BF491853BF31DB54BFE59556BFC7
:104E3000534858BF6AF259BF1A945BBF532D5DBFE8
:104E400005BE5EBF214660BF97C561BF5A3C63BFC8
:104E500059AA64BF880F66BFD86B67BF3CBF68BFE5
:104E6000A7096ABF0C4B6BBF5E836CBF93B26DBF6B
:104E70009ED86EBF73F56FBF080971BF521372BF22
:104E8000471473BFDD0B74BF0BFA74BFC6DE75BF6A
:104E900007BA76BFC58B77BFF85378BF981279BF32
:104EA0009DC779BF02737ABFBE147BBFCDAC7BBFF9
:104EB000283B7CBFC9BF7CBFAC3A7DBFCCAB7DBFBC
:104EC00023137EBFB0707EBF6DC47EBF580E7FBF00
:104ED0006D4E7FBFAB847FBF0FB17FBF97D37FBFC6
:104EE00043EC7FBF11FB7FBF000080BF11FB7FBF82
:104EF00043EC7FBF97D37FBF0FB17FBFAB847FBF32
:104F00006D4E7FBF580E7FBF6DC47EBFB0707EBF39
:104F100023137EBFCCAB7DBFAC3A7DBFC9BF7CBF86
:104F2000283B7CBFCDAC7BBFBE147BBF02737ABF76
:104F30009DC779BF981279BFF85378BFC58B77BFEB
:104F400007BA76BFC6DE75BF0BFA74BFDD0B74BF40
:104F5000471473BF521372BF080971BF73F56FBF57
:104F60009ED86EBF93B26DBF5E836CBF0C4B6BBFA0
:104F7000A7096ABF3CBF68BFD86B67BF880F66BF11
:104F800059AA64BF5A3C63BF97C561BF214660BF41
:104F900005BE5EBF532D5DBF1A945BBF6AF259BF59
:104FA000534858BFE59556BF31DB54BF491853BF2E
:104FB0003D4D51BF207A4FBF029F4DBFF8BB4BBF45
:104FC00012D149BF65DE47BF03E445BF01E243BFDD
:104FD00070D841BF67C73FBFF9AE3DBF3B8F3BBFF6
:104FE000426839BF233A37BFF30435BFC9C832BF5F
:104FF000BB8530BFDE3B2EBF4AEB2BBF159429BFCC
:10500000563627BF25D224BF996722BFCBF61FBFD4
:10501000D17F1DBFC6021BBFC07F18BFD9F615BF09
:105020002A6813BFCDD310BFDA390EBF6B9A0BBFFE
:105030009BF508BF824B06BF3D9C03BFE4E700BF62
:10504000275DFCBECBE0F6BEEA5AF1BEBBCBEBBEA1
:105050007533E6BE4F92E0BE80E8DABE4136D5BE7B
:10506000CA7BCFBE53B9C9BE15EFC3BE491DBEBE74
:105070002A44B8BEEF63B2BED47CACBE128FA6BECB
:10508000E59AA0BE86A09ABE32A094BE229A8EBE99
:10509000938E88BEC07D82BECCCF78BE7F9A6CBE18
:1050A000135C60BE011554BEC2C547BECF6E3BBE89
:1050B000A2102FBEB5AB22BE834016BE87CF09BE5D
:1050C00073B2FABD2FBCE1BD36BDC8BD80B6AFBD61
:1050D00004A996BD752B7BBD2EFB48BD2BC316BD09
:1050E000B10AC9BC920E49BC0000008064000000F7
:1050F000080000000000000064000000080000003C
:10510000000000006400000001000000000000003A
:105110003051000800000020DC0000006C20000876
:105120000C520008DC0000201C4A00007C20000813
:10513000000000000000000000000000000000006F
:10514000000000000000000000000000000000005F
:10515000000000000000000000000000000000004F
:10516000000000000000000000000000000000003F
:10517000AAAAAAAA00000000000000000000000087
:10518000000000000000000000000000000000001F
:10519000000000000000000000000000000000000F
:1051A00000000000000000000000000000000000FF
:1051B00000000000000000000000000000000000EF
:1051C00000000000000000000000000000000000DF
:1051D00000000000000000000000000000000000CF
:1051E00000000000000000000000000000000000BF
:1051F00000000000000000000000000000000000AF
:0C520000000000000000000000000000A2
:0400000508000131BD
:00000001FF
